{
  "_format": "hh-sol-artifact-1",
  "contractName": "AdvertisableCoin",
  "sourceName": "contracts/AdvertisableCoin.sol",
  "abi": [
    {
      "inputs": [],
      "stateMutability": "nonpayable",
      "type": "constructor"
    },
    {
      "anonymous": false,
      "inputs": [
        {
          "indexed": true,
          "internalType": "address",
          "name": "owner",
          "type": "address"
        },
        {
          "indexed": true,
          "internalType": "address",
          "name": "spender",
          "type": "address"
        },
        {
          "indexed": false,
          "internalType": "uint256",
          "name": "value",
          "type": "uint256"
        }
      ],
      "name": "Approval",
      "type": "event"
    },
    {
      "anonymous": false,
      "inputs": [
        {
          "indexed": false,
          "internalType": "address",
          "name": "owner",
          "type": "address"
        },
        {
          "indexed": false,
          "internalType": "address",
          "name": "contractAddress",
          "type": "address"
        },
        {
          "indexed": false,
          "internalType": "uint256",
          "name": "reward",
          "type": "uint256"
        },
        {
          "indexed": false,
          "internalType": "uint256",
          "name": "budget",
          "type": "uint256"
        },
        {
          "indexed": false,
          "internalType": "uint256",
          "name": "startTimestamp",
          "type": "uint256"
        },
        {
          "indexed": false,
          "internalType": "uint256",
          "name": "campaignPeriod",
          "type": "uint256"
        }
      ],
      "name": "CampaignEvent",
      "type": "event"
    },
    {
      "anonymous": false,
      "inputs": [
        {
          "indexed": true,
          "internalType": "address",
          "name": "referrer",
          "type": "address"
        },
        {
          "indexed": false,
          "internalType": "uint256",
          "name": "reward",
          "type": "uint256"
        }
      ],
      "name": "ReferralEvent",
      "type": "event"
    },
    {
      "anonymous": false,
      "inputs": [
        {
          "indexed": true,
          "internalType": "address",
          "name": "from",
          "type": "address"
        },
        {
          "indexed": true,
          "internalType": "address",
          "name": "to",
          "type": "address"
        },
        {
          "indexed": false,
          "internalType": "uint256",
          "name": "value",
          "type": "uint256"
        }
      ],
      "name": "Transfer",
      "type": "event"
    },
    {
      "inputs": [
        {
          "internalType": "address",
          "name": "owner",
          "type": "address"
        },
        {
          "internalType": "address",
          "name": "spender",
          "type": "address"
        }
      ],
      "name": "allowance",
      "outputs": [
        {
          "internalType": "uint256",
          "name": "",
          "type": "uint256"
        }
      ],
      "stateMutability": "view",
      "type": "function"
    },
    {
      "inputs": [
        {
          "internalType": "address",
          "name": "spender",
          "type": "address"
        },
        {
          "internalType": "uint256",
          "name": "amount",
          "type": "uint256"
        }
      ],
      "name": "approve",
      "outputs": [
        {
          "internalType": "bool",
          "name": "",
          "type": "bool"
        }
      ],
      "stateMutability": "nonpayable",
      "type": "function"
    },
    {
      "inputs": [
        {
          "internalType": "address",
          "name": "account",
          "type": "address"
        }
      ],
      "name": "balanceOf",
      "outputs": [
        {
          "internalType": "uint256",
          "name": "",
          "type": "uint256"
        }
      ],
      "stateMutability": "view",
      "type": "function"
    },
    {
      "inputs": [],
      "name": "budget",
      "outputs": [
        {
          "internalType": "uint256",
          "name": "",
          "type": "uint256"
        }
      ],
      "stateMutability": "view",
      "type": "function"
    },
    {
      "inputs": [],
      "name": "campaignPeriod",
      "outputs": [
        {
          "internalType": "uint256",
          "name": "",
          "type": "uint256"
        }
      ],
      "stateMutability": "view",
      "type": "function"
    },
    {
      "inputs": [
        {
          "internalType": "uint256",
          "name": "newFee",
          "type": "uint256"
        }
      ],
      "name": "changeDefaultFee",
      "outputs": [],
      "stateMutability": "nonpayable",
      "type": "function"
    },
    {
      "inputs": [
        {
          "internalType": "address",
          "name": "referrer",
          "type": "address"
        }
      ],
      "name": "claim",
      "outputs": [],
      "stateMutability": "nonpayable",
      "type": "function"
    },
    {
      "inputs": [],
      "name": "decimals",
      "outputs": [
        {
          "internalType": "uint8",
          "name": "",
          "type": "uint8"
        }
      ],
      "stateMutability": "view",
      "type": "function"
    },
    {
      "inputs": [
        {
          "internalType": "address",
          "name": "spender",
          "type": "address"
        },
        {
          "internalType": "uint256",
          "name": "subtractedValue",
          "type": "uint256"
        }
      ],
      "name": "decreaseAllowance",
      "outputs": [
        {
          "internalType": "bool",
          "name": "",
          "type": "bool"
        }
      ],
      "stateMutability": "nonpayable",
      "type": "function"
    },
    {
      "inputs": [
        {
          "internalType": "uint256",
          "name": "amount",
          "type": "uint256"
        }
      ],
      "name": "decreaseBudget",
      "outputs": [],
      "stateMutability": "nonpayable",
      "type": "function"
    },
    {
      "inputs": [
        {
          "internalType": "uint256",
          "name": "numDays",
          "type": "uint256"
        }
      ],
      "name": "decreaseCampaignPeriod",
      "outputs": [],
      "stateMutability": "nonpayable",
      "type": "function"
    },
    {
      "inputs": [
        {
          "internalType": "address",
          "name": "spender",
          "type": "address"
        },
        {
          "internalType": "uint256",
          "name": "addedValue",
          "type": "uint256"
        }
      ],
      "name": "increaseAllowance",
      "outputs": [
        {
          "internalType": "bool",
          "name": "",
          "type": "bool"
        }
      ],
      "stateMutability": "nonpayable",
      "type": "function"
    },
    {
      "inputs": [
        {
          "internalType": "uint256",
          "name": "amount",
          "type": "uint256"
        }
      ],
      "name": "increaseBudget",
      "outputs": [],
      "stateMutability": "nonpayable",
      "type": "function"
    },
    {
      "inputs": [
        {
          "internalType": "uint256",
          "name": "numDays",
          "type": "uint256"
        }
      ],
      "name": "increaseCampaignPeriod",
      "outputs": [],
      "stateMutability": "nonpayable",
      "type": "function"
    },
    {
      "inputs": [],
      "name": "isCampaignActive",
      "outputs": [
        {
          "internalType": "bool",
          "name": "",
          "type": "bool"
        }
      ],
      "stateMutability": "view",
      "type": "function"
    },
    {
      "inputs": [],
      "name": "name",
      "outputs": [
        {
          "internalType": "string",
          "name": "",
          "type": "string"
        }
      ],
      "stateMutability": "view",
      "type": "function"
    },
    {
      "inputs": [
        {
          "internalType": "address",
          "name": "",
          "type": "address"
        }
      ],
      "name": "referrerRewards",
      "outputs": [
        {
          "internalType": "uint256",
          "name": "",
          "type": "uint256"
        }
      ],
      "stateMutability": "view",
      "type": "function"
    },
    {
      "inputs": [],
      "name": "reward",
      "outputs": [
        {
          "internalType": "uint256",
          "name": "",
          "type": "uint256"
        }
      ],
      "stateMutability": "view",
      "type": "function"
    },
    {
      "inputs": [],
      "name": "startTimestamp",
      "outputs": [
        {
          "internalType": "uint256",
          "name": "",
          "type": "uint256"
        }
      ],
      "stateMutability": "view",
      "type": "function"
    },
    {
      "inputs": [],
      "name": "status",
      "outputs": [
        {
          "internalType": "bool",
          "name": "",
          "type": "bool"
        }
      ],
      "stateMutability": "view",
      "type": "function"
    },
    {
      "inputs": [],
      "name": "symbol",
      "outputs": [
        {
          "internalType": "string",
          "name": "",
          "type": "string"
        }
      ],
      "stateMutability": "view",
      "type": "function"
    },
    {
      "inputs": [],
      "name": "toggleCampaign",
      "outputs": [],
      "stateMutability": "nonpayable",
      "type": "function"
    },
    {
      "inputs": [],
      "name": "totalSupply",
      "outputs": [
        {
          "internalType": "uint256",
          "name": "",
          "type": "uint256"
        }
      ],
      "stateMutability": "view",
      "type": "function"
    },
    {
      "inputs": [
        {
          "internalType": "address",
          "name": "to",
          "type": "address"
        },
        {
          "internalType": "uint256",
          "name": "amount",
          "type": "uint256"
        }
      ],
      "name": "transfer",
      "outputs": [
        {
          "internalType": "bool",
          "name": "",
          "type": "bool"
        }
      ],
      "stateMutability": "nonpayable",
      "type": "function"
    },
    {
      "inputs": [
        {
          "internalType": "address",
          "name": "to",
          "type": "address"
        },
        {
          "internalType": "uint256",
          "name": "amount",
          "type": "uint256"
        },
        {
          "internalType": "address",
          "name": "referrer",
          "type": "address"
        }
      ],
      "name": "transfer",
      "outputs": [
        {
          "internalType": "bool",
          "name": "",
          "type": "bool"
        }
      ],
      "stateMutability": "nonpayable",
      "type": "function"
    },
    {
      "inputs": [
        {
          "internalType": "address",
          "name": "from",
          "type": "address"
        },
        {
          "internalType": "address",
          "name": "to",
          "type": "address"
        },
        {
          "internalType": "uint256",
          "name": "amount",
          "type": "uint256"
        }
      ],
      "name": "transferFrom",
      "outputs": [
        {
          "internalType": "bool",
          "name": "",
          "type": "bool"
        }
      ],
      "stateMutability": "nonpayable",
      "type": "function"
    }
  ],
  "bytecode": "0x60806040526001600a60006101000a81548160ff0219169083151502179055503480156200002c57600080fd5b506005606460076040518060400160405280601081526020017f416476657274697361626c65436f696e000000000000000000000000000000008152506040518060400160405280600281526020017f41430000000000000000000000000000000000000000000000000000000000008152508160039081620000b09190620003bf565b508060049081620000c29190620003bf565b5050508260068190555081600781905550426008819055506201518081620000eb9190620004d5565b6009819055507fcbded4ed87b97ca7d901b0f1d4a6913b2585d0cf38778dba1b325b54fdaf881d3330600654600754600854600954604051620001349695949392919062000576565b60405180910390a1505050620005e3565b600081519050919050565b7f4e487b7100000000000000000000000000000000000000000000000000000000600052604160045260246000fd5b7f4e487b7100000000000000000000000000000000000000000000000000000000600052602260045260246000fd5b60006002820490506001821680620001c757607f821691505b602082108103620001dd57620001dc6200017f565b5b50919050565b60008190508160005260206000209050919050565b60006020601f8301049050919050565b600082821b905092915050565b600060088302620002477fffffffffffffffffffffffffffffffffffffffffffffffffffffffffffffffff8262000208565b62000253868362000208565b95508019841693508086168417925050509392505050565b6000819050919050565b6000819050919050565b6000620002a06200029a62000294846200026b565b62000275565b6200026b565b9050919050565b6000819050919050565b620002bc836200027f565b620002d4620002cb82620002a7565b84845462000215565b825550505050565b600090565b620002eb620002dc565b620002f8818484620002b1565b505050565b5b81811015620003205762000314600082620002e1565b600181019050620002fe565b5050565b601f8211156200036f576200033981620001e3565b6200034484620001f8565b8101602085101562000354578190505b6200036c6200036385620001f8565b830182620002fd565b50505b505050565b600082821c905092915050565b6000620003946000198460080262000374565b1980831691505092915050565b6000620003af838362000381565b9150826002028217905092915050565b620003ca8262000145565b67ffffffffffffffff811115620003e657620003e562000150565b5b620003f28254620001ae565b620003ff82828562000324565b600060209050601f83116001811462000437576000841562000422578287015190505b6200042e8582620003a1565b8655506200049e565b601f1984166200044786620001e3565b60005b8281101562000471578489015182556001820191506020850194506020810190506200044a565b868310156200049157848901516200048d601f89168262000381565b8355505b6001600288020188555050505b505050505050565b7f4e487b7100000000000000000000000000000000000000000000000000000000600052601160045260246000fd5b6000620004e2826200026b565b9150620004ef836200026b565b9250828202620004ff816200026b565b91508282048414831517620005195762000518620004a6565b5b5092915050565b600073ffffffffffffffffffffffffffffffffffffffff82169050919050565b60006200054d8262000520565b9050919050565b6200055f8162000540565b82525050565b62000570816200026b565b82525050565b600060c0820190506200058d600083018962000554565b6200059c602083018862000554565b620005ab604083018762000565565b620005ba606083018662000565565b620005c9608083018562000565565b620005d860a083018462000565565b979650505050505050565b6119ea80620005f36000396000f3fe608060405234801561001057600080fd5b506004361061018e5760003560e01c806370a08231116100de578063cf27849f11610097578063ddd37d9a11610071578063ddd37d9a146104ab578063e6fd48bc146104c7578063ed01bf29146104e5578063f387bcac146105035761018e565b8063cf27849f1461042f578063dbba0f011461044b578063dd62ed3e1461047b5761018e565b806370a082311461033357806384e311a41461036357806395d89b4114610393578063a457c2d7146103b1578063a9059cbb146103e1578063bc7be4a3146104115761018e565b8063228cb7331161014b578063395093511161012557806339509351146102c157806341d04993146102f157806349c26fcb1461030d5780635c3c29e7146103295761018e565b8063228cb7331461025557806323b872dd14610273578063313ce567146102a35761018e565b806306fdde0314610193578063095ea7b3146101b15780630b228b30146101e157806318160ddd146101fd5780631e83409a1461021b578063200d2ed214610237575b600080fd5b61019b610521565b6040516101a8919061111f565b60405180910390f35b6101cb60048036038101906101c691906111da565b6105b3565b6040516101d89190611235565b60405180910390f35b6101fb60048036038101906101f69190611250565b6105d6565b005b610205610600565b604051610212919061128c565b60405180910390f35b610235600480360381019061023091906112a7565b61060a565b005b61023f610744565b60405161024c9190611235565b60405180910390f35b61025d610757565b60405161026a919061128c565b60405180910390f35b61028d600480360381019061028891906112d4565b61075d565b60405161029a9190611235565b60405180910390f35b6102ab61078c565b6040516102b89190611343565b60405180910390f35b6102db60048036038101906102d691906111da565b610795565b6040516102e89190611235565b60405180910390f35b61030b60048036038101906103069190611250565b6107cc565b005b61032760048036038101906103229190611250565b6107d6565b005b6103316107f2565b005b61034d600480360381019061034891906112a7565b61081e565b60405161035a919061128c565b60405180910390f35b61037d600480360381019061037891906112a7565b610866565b60405161038a919061128c565b60405180910390f35b61039b61087e565b6040516103a8919061111f565b60405180910390f35b6103cb60048036038101906103c691906111da565b610910565b6040516103d89190611235565b60405180910390f35b6103fb60048036038101906103f691906111da565b610987565b6040516104089190611235565b60405180910390f35b6104196109aa565b604051610426919061128c565b60405180910390f35b61044960048036038101906104449190611250565b6109b0565b005b6104656004803603810190610460919061135e565b6109cc565b6040516104729190611235565b60405180910390f35b610495600480360381019061049091906113b1565b610ab4565b6040516104a2919061128c565b60405180910390f35b6104c560048036038101906104c09190611250565b610b3b565b005b6104cf610b65565b6040516104dc919061128c565b60405180910390f35b6104ed610b6b565b6040516104fa919061128c565b60405180910390f35b61050b610b71565b6040516105189190611235565b60405180910390f35b60606003805461053090611420565b80601f016020809104026020016040519081016040528092919081815260200182805461055c90611420565b80156105a95780601f1061057e576101008083540402835291602001916105a9565b820191906000526020600020905b81548152906001019060200180831161058c57829003601f168201915b5050505050905090565b6000806105be610bb2565b90506105cb818585610bba565b600191505092915050565b62015180816105e59190611480565b600960008282546105f691906114c2565b9250508190555050565b6000600254905090565b6000600560008373ffffffffffffffffffffffffffffffffffffffff1673ffffffffffffffffffffffffffffffffffffffff1681526020019081526020016000205490506000600560008473ffffffffffffffffffffffffffffffffffffffff1673ffffffffffffffffffffffffffffffffffffffff1681526020019081526020016000208190555060008273ffffffffffffffffffffffffffffffffffffffff16826040516106b990611527565b60006040518083038185875af1925050503d80600081146106f6576040519150601f19603f3d011682016040523d82523d6000602084013e6106fb565b606091505b505090508061073f576040517f08c379a000000000000000000000000000000000000000000000000000000000815260040161073690611588565b60405180910390fd5b505050565b600a60009054906101000a900460ff1681565b60065481565b600080610768610bb2565b9050610775858285610d83565b610780858585610e0f565b60019150509392505050565b60006012905090565b6000806107a0610bb2565b90506107c18185856107b28589610ab4565b6107bc91906114c2565b610bba565b600191505092915050565b8060068190555050565b80600760008282546107e891906114c2565b9250508190555050565b600a60009054906101000a900460ff1615600a60006101000a81548160ff021916908315150217905550565b60008060008373ffffffffffffffffffffffffffffffffffffffff1673ffffffffffffffffffffffffffffffffffffffff168152602001908152602001600020549050919050565b60056020528060005260406000206000915090505481565b60606004805461088d90611420565b80601f01602080910402602001604051908101604052809291908181526020018280546108b990611420565b80156109065780601f106108db57610100808354040283529160200191610906565b820191906000526020600020905b8154815290600101906020018083116108e957829003601f168201915b5050505050905090565b60008061091b610bb2565b905060006109298286610ab4565b90508381101561096e576040517f08c379a00000000000000000000000000000000000000000000000000000000081526004016109659061161a565b60405180910390fd5b61097b8286868403610bba565b60019250505092915050565b600080610992610bb2565b905061099f818585610e0f565b600191505092915050565b60095481565b80600760008282546109c2919061163a565b9250508190555050565b6000816109d7610b71565b15610aa057600654600560008373ffffffffffffffffffffffffffffffffffffffff1673ffffffffffffffffffffffffffffffffffffffff1681526020019081526020016000206000828254610a2d91906114c2565b9250508190555060065460076000828254610a48919061163a565b925050819055508073ffffffffffffffffffffffffffffffffffffffff167ffc12d942a8323392dc373e85a9e3e2d6f081642cdbf455030cbab3f858c78b3c600654604051610a97919061128c565b60405180910390a25b610aaa8585610987565b9150509392505050565b6000600160008473ffffffffffffffffffffffffffffffffffffffff1673ffffffffffffffffffffffffffffffffffffffff16815260200190815260200160002060008373ffffffffffffffffffffffffffffffffffffffff1673ffffffffffffffffffffffffffffffffffffffff16815260200190815260200160002054905092915050565b6201518081610b4a9190611480565b60096000828254610b5b919061163a565b9250508190555050565b60085481565b60075481565b6000600954600854610b8391906114c2565b42108015610b95575060065460075410155b8015610bad5750600a60009054906101000a900460ff165b905090565b600033905090565b600073ffffffffffffffffffffffffffffffffffffffff168373ffffffffffffffffffffffffffffffffffffffff1603610c29576040517f08c379a0000000000000000000000000000000000000000000000000000000008152600401610c20906116e0565b60405180910390fd5b600073ffffffffffffffffffffffffffffffffffffffff168273ffffffffffffffffffffffffffffffffffffffff1603610c98576040517f08c379a0000000000000000000000000000000000000000000000000000000008152600401610c8f90611772565b60405180910390fd5b80600160008573ffffffffffffffffffffffffffffffffffffffff1673ffffffffffffffffffffffffffffffffffffffff16815260200190815260200160002060008473ffffffffffffffffffffffffffffffffffffffff1673ffffffffffffffffffffffffffffffffffffffff168152602001908152602001600020819055508173ffffffffffffffffffffffffffffffffffffffff168373ffffffffffffffffffffffffffffffffffffffff167f8c5be1e5ebec7d5bd14f71427d1e84f3dd0314c0f7b2291e5b200ac8c7c3b92583604051610d76919061128c565b60405180910390a3505050565b6000610d8f8484610ab4565b90507fffffffffffffffffffffffffffffffffffffffffffffffffffffffffffffffff8114610e095781811015610dfb576040517f08c379a0000000000000000000000000000000000000000000000000000000008152600401610df2906117de565b60405180910390fd5b610e088484848403610bba565b5b50505050565b600073ffffffffffffffffffffffffffffffffffffffff168373ffffffffffffffffffffffffffffffffffffffff1603610e7e576040517f08c379a0000000000000000000000000000000000000000000000000000000008152600401610e7590611870565b60405180910390fd5b600073ffffffffffffffffffffffffffffffffffffffff168273ffffffffffffffffffffffffffffffffffffffff1603610eed576040517f08c379a0000000000000000000000000000000000000000000000000000000008152600401610ee490611902565b60405180910390fd5b610ef8838383611085565b60008060008573ffffffffffffffffffffffffffffffffffffffff1673ffffffffffffffffffffffffffffffffffffffff16815260200190815260200160002054905081811015610f7e576040517f08c379a0000000000000000000000000000000000000000000000000000000008152600401610f7590611994565b60405180910390fd5b8181036000808673ffffffffffffffffffffffffffffffffffffffff1673ffffffffffffffffffffffffffffffffffffffff16815260200190815260200160002081905550816000808573ffffffffffffffffffffffffffffffffffffffff1673ffffffffffffffffffffffffffffffffffffffff168152602001908152602001600020600082825401925050819055508273ffffffffffffffffffffffffffffffffffffffff168473ffffffffffffffffffffffffffffffffffffffff167fddf252ad1be2c89b69c2b068fc378daa952ba7f163c4a11628f55a4df523b3ef8460405161106c919061128c565b60405180910390a361107f84848461108a565b50505050565b505050565b505050565b600081519050919050565b600082825260208201905092915050565b60005b838110156110c95780820151818401526020810190506110ae565b60008484015250505050565b6000601f19601f8301169050919050565b60006110f18261108f565b6110fb818561109a565b935061110b8185602086016110ab565b611114816110d5565b840191505092915050565b6000602082019050818103600083015261113981846110e6565b905092915050565b600080fd5b600073ffffffffffffffffffffffffffffffffffffffff82169050919050565b600061117182611146565b9050919050565b61118181611166565b811461118c57600080fd5b50565b60008135905061119e81611178565b92915050565b6000819050919050565b6111b7816111a4565b81146111c257600080fd5b50565b6000813590506111d4816111ae565b92915050565b600080604083850312156111f1576111f0611141565b5b60006111ff8582860161118f565b9250506020611210858286016111c5565b9150509250929050565b60008115159050919050565b61122f8161121a565b82525050565b600060208201905061124a6000830184611226565b92915050565b60006020828403121561126657611265611141565b5b6000611274848285016111c5565b91505092915050565b611286816111a4565b82525050565b60006020820190506112a1600083018461127d565b92915050565b6000602082840312156112bd576112bc611141565b5b60006112cb8482850161118f565b91505092915050565b6000806000606084860312156112ed576112ec611141565b5b60006112fb8682870161118f565b935050602061130c8682870161118f565b925050604061131d868287016111c5565b9150509250925092565b600060ff82169050919050565b61133d81611327565b82525050565b60006020820190506113586000830184611334565b92915050565b60008060006060848603121561137757611376611141565b5b60006113858682870161118f565b9350506020611396868287016111c5565b92505060406113a78682870161118f565b9150509250925092565b600080604083850312156113c8576113c7611141565b5b60006113d68582860161118f565b92505060206113e78582860161118f565b9150509250929050565b7f4e487b7100000000000000000000000000000000000000000000000000000000600052602260045260246000fd5b6000600282049050600182168061143857607f821691505b60208210810361144b5761144a6113f1565b5b50919050565b7f4e487b7100000000000000000000000000000000000000000000000000000000600052601160045260246000fd5b600061148b826111a4565b9150611496836111a4565b92508282026114a4816111a4565b915082820484148315176114bb576114ba611451565b5b5092915050565b60006114cd826111a4565b91506114d8836111a4565b92508282019050808211156114f0576114ef611451565b5b92915050565b600081905092915050565b50565b60006115116000836114f6565b915061151c82611501565b600082019050919050565b600061153282611504565b9150819050919050565b7f4661696c656420746f2073656e64204574686572000000000000000000000000600082015250565b600061157260148361109a565b915061157d8261153c565b602082019050919050565b600060208201905081810360008301526115a181611565565b9050919050565b7f45524332303a2064656372656173656420616c6c6f77616e63652062656c6f7760008201527f207a65726f000000000000000000000000000000000000000000000000000000602082015250565b600061160460258361109a565b915061160f826115a8565b604082019050919050565b60006020820190508181036000830152611633816115f7565b9050919050565b6000611645826111a4565b9150611650836111a4565b925082820390508181111561166857611667611451565b5b92915050565b7f45524332303a20617070726f76652066726f6d20746865207a65726f2061646460008201527f7265737300000000000000000000000000000000000000000000000000000000602082015250565b60006116ca60248361109a565b91506116d58261166e565b604082019050919050565b600060208201905081810360008301526116f9816116bd565b9050919050565b7f45524332303a20617070726f766520746f20746865207a65726f20616464726560008201527f7373000000000000000000000000000000000000000000000000000000000000602082015250565b600061175c60228361109a565b915061176782611700565b604082019050919050565b6000602082019050818103600083015261178b8161174f565b9050919050565b7f45524332303a20696e73756666696369656e7420616c6c6f77616e6365000000600082015250565b60006117c8601d8361109a565b91506117d382611792565b602082019050919050565b600060208201905081810360008301526117f7816117bb565b9050919050565b7f45524332303a207472616e736665722066726f6d20746865207a65726f20616460008201527f6472657373000000000000000000000000000000000000000000000000000000602082015250565b600061185a60258361109a565b9150611865826117fe565b604082019050919050565b600060208201905081810360008301526118898161184d565b9050919050565b7f45524332303a207472616e7366657220746f20746865207a65726f206164647260008201527f6573730000000000000000000000000000000000000000000000000000000000602082015250565b60006118ec60238361109a565b91506118f782611890565b604082019050919050565b6000602082019050818103600083015261191b816118df565b9050919050565b7f45524332303a207472616e7366657220616d6f756e742065786365656473206260008201527f616c616e63650000000000000000000000000000000000000000000000000000602082015250565b600061197e60268361109a565b915061198982611922565b604082019050919050565b600060208201905081810360008301526119ad81611971565b905091905056fea2646970667358221220c95b1ebc36aeab788916260bf70a86e9a828e2304afe4bd3ea146ffefc121f6464736f6c63430008130033",
  "linkReferences": {},
  "deployedLinkReferences": {}
}