{
  "_format": "hh-sol-artifact-1",
  "contractName": "AdvertisableCoin",
  "sourceName": "contracts/AdvertisableCoin.sol",
  "abi": [
    {
      "inputs": [],
      "stateMutability": "payable",
      "type": "constructor"
    },
    {
      "anonymous": false,
      "inputs": [
        {
          "indexed": true,
          "internalType": "address",
          "name": "owner",
          "type": "address"
        },
        {
          "indexed": true,
          "internalType": "address",
          "name": "spender",
          "type": "address"
        },
        {
          "indexed": false,
          "internalType": "uint256",
          "name": "value",
          "type": "uint256"
        }
      ],
      "name": "Approval",
      "type": "event"
    },
    {
      "anonymous": false,
      "inputs": [
        {
          "indexed": false,
          "internalType": "address",
          "name": "owner",
          "type": "address"
        },
        {
          "indexed": false,
          "internalType": "address",
          "name": "contractAddress",
          "type": "address"
        },
        {
          "indexed": false,
          "internalType": "uint256",
          "name": "reward",
          "type": "uint256"
        },
        {
          "indexed": false,
          "internalType": "uint256",
          "name": "budget",
          "type": "uint256"
        },
        {
          "indexed": false,
          "internalType": "uint256",
          "name": "startTimestamp",
          "type": "uint256"
        },
        {
          "indexed": false,
          "internalType": "uint256",
          "name": "campaignPeriod",
          "type": "uint256"
        }
      ],
      "name": "CampaignEvent",
      "type": "event"
    },
    {
      "anonymous": false,
      "inputs": [
        {
          "indexed": true,
          "internalType": "address",
          "name": "referrer",
          "type": "address"
        },
        {
          "indexed": true,
          "internalType": "address",
          "name": "contractAddress",
          "type": "address"
        },
        {
          "indexed": false,
          "internalType": "uint256",
          "name": "reward",
          "type": "uint256"
        }
      ],
      "name": "ReferralEvent",
      "type": "event"
    },
    {
      "anonymous": false,
      "inputs": [
        {
          "indexed": true,
          "internalType": "address",
          "name": "from",
          "type": "address"
        },
        {
          "indexed": true,
          "internalType": "address",
          "name": "to",
          "type": "address"
        },
        {
          "indexed": false,
          "internalType": "uint256",
          "name": "value",
          "type": "uint256"
        }
      ],
      "name": "Transfer",
      "type": "event"
    },
    {
      "stateMutability": "payable",
      "type": "fallback"
    },
    {
      "inputs": [
        {
          "internalType": "address",
          "name": "owner",
          "type": "address"
        },
        {
          "internalType": "address",
          "name": "spender",
          "type": "address"
        }
      ],
      "name": "allowance",
      "outputs": [
        {
          "internalType": "uint256",
          "name": "",
          "type": "uint256"
        }
      ],
      "stateMutability": "view",
      "type": "function"
    },
    {
      "inputs": [
        {
          "internalType": "address",
          "name": "spender",
          "type": "address"
        },
        {
          "internalType": "uint256",
          "name": "amount",
          "type": "uint256"
        }
      ],
      "name": "approve",
      "outputs": [
        {
          "internalType": "bool",
          "name": "",
          "type": "bool"
        }
      ],
      "stateMutability": "nonpayable",
      "type": "function"
    },
    {
      "inputs": [
        {
          "internalType": "address",
          "name": "account",
          "type": "address"
        }
      ],
      "name": "balanceOf",
      "outputs": [
        {
          "internalType": "uint256",
          "name": "",
          "type": "uint256"
        }
      ],
      "stateMutability": "view",
      "type": "function"
    },
    {
      "inputs": [],
      "name": "budget",
      "outputs": [
        {
          "internalType": "uint256",
          "name": "",
          "type": "uint256"
        }
      ],
      "stateMutability": "view",
      "type": "function"
    },
    {
      "inputs": [],
      "name": "campaignPeriod",
      "outputs": [
        {
          "internalType": "uint256",
          "name": "",
          "type": "uint256"
        }
      ],
      "stateMutability": "view",
      "type": "function"
    },
    {
      "inputs": [
        {
          "internalType": "uint256",
          "name": "newFee",
          "type": "uint256"
        }
      ],
      "name": "changeDefaultFee",
      "outputs": [],
      "stateMutability": "nonpayable",
      "type": "function"
    },
    {
      "inputs": [
        {
          "internalType": "address",
          "name": "referrer",
          "type": "address"
        }
      ],
      "name": "claim",
      "outputs": [],
      "stateMutability": "nonpayable",
      "type": "function"
    },
    {
      "inputs": [],
      "name": "decimals",
      "outputs": [
        {
          "internalType": "uint8",
          "name": "",
          "type": "uint8"
        }
      ],
      "stateMutability": "view",
      "type": "function"
    },
    {
      "inputs": [
        {
          "internalType": "address",
          "name": "spender",
          "type": "address"
        },
        {
          "internalType": "uint256",
          "name": "subtractedValue",
          "type": "uint256"
        }
      ],
      "name": "decreaseAllowance",
      "outputs": [
        {
          "internalType": "bool",
          "name": "",
          "type": "bool"
        }
      ],
      "stateMutability": "nonpayable",
      "type": "function"
    },
    {
      "inputs": [
        {
          "internalType": "uint256",
          "name": "amount",
          "type": "uint256"
        }
      ],
      "name": "decreaseBudget",
      "outputs": [],
      "stateMutability": "nonpayable",
      "type": "function"
    },
    {
      "inputs": [
        {
          "internalType": "uint256",
          "name": "numDays",
          "type": "uint256"
        }
      ],
      "name": "decreaseCampaignPeriod",
      "outputs": [],
      "stateMutability": "nonpayable",
      "type": "function"
    },
    {
      "inputs": [
        {
          "internalType": "address",
          "name": "referrer",
          "type": "address"
        }
      ],
      "name": "getReferrerReward",
      "outputs": [
        {
          "internalType": "uint256",
          "name": "",
          "type": "uint256"
        }
      ],
      "stateMutability": "view",
      "type": "function"
    },
    {
      "inputs": [
        {
          "internalType": "address",
          "name": "spender",
          "type": "address"
        },
        {
          "internalType": "uint256",
          "name": "addedValue",
          "type": "uint256"
        }
      ],
      "name": "increaseAllowance",
      "outputs": [
        {
          "internalType": "bool",
          "name": "",
          "type": "bool"
        }
      ],
      "stateMutability": "nonpayable",
      "type": "function"
    },
    {
      "inputs": [
        {
          "internalType": "uint256",
          "name": "amount",
          "type": "uint256"
        }
      ],
      "name": "increaseBudget",
      "outputs": [],
      "stateMutability": "nonpayable",
      "type": "function"
    },
    {
      "inputs": [
        {
          "internalType": "uint256",
          "name": "numDays",
          "type": "uint256"
        }
      ],
      "name": "increaseCampaignPeriod",
      "outputs": [],
      "stateMutability": "nonpayable",
      "type": "function"
    },
    {
      "inputs": [],
      "name": "isCampaignActive",
      "outputs": [
        {
          "internalType": "bool",
          "name": "",
          "type": "bool"
        }
      ],
      "stateMutability": "view",
      "type": "function"
    },
    {
      "inputs": [],
      "name": "name",
      "outputs": [
        {
          "internalType": "string",
          "name": "",
          "type": "string"
        }
      ],
      "stateMutability": "view",
      "type": "function"
    },
    {
      "inputs": [],
      "name": "owner",
      "outputs": [
        {
          "internalType": "address payable",
          "name": "",
          "type": "address"
        }
      ],
      "stateMutability": "view",
      "type": "function"
    },
    {
      "inputs": [
        {
          "internalType": "address",
          "name": "",
          "type": "address"
        }
      ],
      "name": "referrerRewards",
      "outputs": [
        {
          "internalType": "uint256",
          "name": "",
          "type": "uint256"
        }
      ],
      "stateMutability": "view",
      "type": "function"
    },
    {
      "inputs": [],
      "name": "reward",
      "outputs": [
        {
          "internalType": "uint256",
          "name": "",
          "type": "uint256"
        }
      ],
      "stateMutability": "view",
      "type": "function"
    },
    {
      "inputs": [],
      "name": "startTimestamp",
      "outputs": [
        {
          "internalType": "uint256",
          "name": "",
          "type": "uint256"
        }
      ],
      "stateMutability": "view",
      "type": "function"
    },
    {
      "inputs": [],
      "name": "status",
      "outputs": [
        {
          "internalType": "bool",
          "name": "",
          "type": "bool"
        }
      ],
      "stateMutability": "view",
      "type": "function"
    },
    {
      "inputs": [],
      "name": "symbol",
      "outputs": [
        {
          "internalType": "string",
          "name": "",
          "type": "string"
        }
      ],
      "stateMutability": "view",
      "type": "function"
    },
    {
      "inputs": [],
      "name": "toggleCampaign",
      "outputs": [],
      "stateMutability": "nonpayable",
      "type": "function"
    },
    {
      "inputs": [],
      "name": "totalSupply",
      "outputs": [
        {
          "internalType": "uint256",
          "name": "",
          "type": "uint256"
        }
      ],
      "stateMutability": "view",
      "type": "function"
    },
    {
      "inputs": [
        {
          "internalType": "address",
          "name": "to",
          "type": "address"
        },
        {
          "internalType": "uint256",
          "name": "amount",
          "type": "uint256"
        }
      ],
      "name": "transfer",
      "outputs": [
        {
          "internalType": "bool",
          "name": "",
          "type": "bool"
        }
      ],
      "stateMutability": "nonpayable",
      "type": "function"
    },
    {
      "inputs": [
        {
          "internalType": "address",
          "name": "to",
          "type": "address"
        },
        {
          "internalType": "uint256",
          "name": "amount",
          "type": "uint256"
        },
        {
          "internalType": "address",
          "name": "referrer",
          "type": "address"
        }
      ],
      "name": "transfer",
      "outputs": [
        {
          "internalType": "bool",
          "name": "",
          "type": "bool"
        }
      ],
      "stateMutability": "nonpayable",
      "type": "function"
    },
    {
      "inputs": [
        {
          "internalType": "address",
          "name": "from",
          "type": "address"
        },
        {
          "internalType": "address",
          "name": "to",
          "type": "address"
        },
        {
          "internalType": "uint256",
          "name": "amount",
          "type": "uint256"
        }
      ],
      "name": "transferFrom",
      "outputs": [
        {
          "internalType": "bool",
          "name": "",
          "type": "bool"
        }
      ],
      "stateMutability": "nonpayable",
      "type": "function"
    },
    {
      "stateMutability": "payable",
      "type": "receive"
    }
  ],
  "bytecode": "0x60806040526001600a60006101000a81548160ff0219169083151502179055506005606460076040518060400160405280601081526020017f416476657274697361626c65436f696e000000000000000000000000000000008152506040518060400160405280600281526020017f41430000000000000000000000000000000000000000000000000000000000008152508160039081620000a29190620005d4565b508060049081620000b49190620005d4565b5050508260068190555081600781905550426008819055506201518081620000dd9190620006ea565b6009819055507fcbded4ed87b97ca7d901b0f1d4a6913b2585d0cf38778dba1b325b54fdaf881d333060065460075460085460095460405162000126969594939291906200078b565b60405180910390a150505033600a60016101000a81548173ffffffffffffffffffffffffffffffffffffffff021916908373ffffffffffffffffffffffffffffffffffffffff160217905550620001d4600a60019054906101000a900473ffffffffffffffffffffffffffffffffffffffff16620001a9620001da60201b60201c565b600a620001b7919062000959565b6302faf080620001c89190620006ea565b620001e360201b60201c565b62000a85565b60006012905090565b600073ffffffffffffffffffffffffffffffffffffffff168273ffffffffffffffffffffffffffffffffffffffff160362000255576040517f08c379a00000000000000000000000000000000000000000000000000000000081526004016200024c9062000a0b565b60405180910390fd5b62000269600083836200035060201b60201c565b80600260008282546200027d919062000a2d565b92505081905550806000808473ffffffffffffffffffffffffffffffffffffffff1673ffffffffffffffffffffffffffffffffffffffff168152602001908152602001600020600082825401925050819055508173ffffffffffffffffffffffffffffffffffffffff16600073ffffffffffffffffffffffffffffffffffffffff167fddf252ad1be2c89b69c2b068fc378daa952ba7f163c4a11628f55a4df523b3ef8360405162000330919062000a68565b60405180910390a36200034c600083836200035560201b60201c565b5050565b505050565b505050565b600081519050919050565b7f4e487b7100000000000000000000000000000000000000000000000000000000600052604160045260246000fd5b7f4e487b7100000000000000000000000000000000000000000000000000000000600052602260045260246000fd5b60006002820490506001821680620003dc57607f821691505b602082108103620003f257620003f162000394565b5b50919050565b60008190508160005260206000209050919050565b60006020601f8301049050919050565b600082821b905092915050565b6000600883026200045c7fffffffffffffffffffffffffffffffffffffffffffffffffffffffffffffffff826200041d565b6200046886836200041d565b95508019841693508086168417925050509392505050565b6000819050919050565b6000819050919050565b6000620004b5620004af620004a98462000480565b6200048a565b62000480565b9050919050565b6000819050919050565b620004d18362000494565b620004e9620004e082620004bc565b8484546200042a565b825550505050565b600090565b62000500620004f1565b6200050d818484620004c6565b505050565b5b81811015620005355762000529600082620004f6565b60018101905062000513565b5050565b601f82111562000584576200054e81620003f8565b62000559846200040d565b8101602085101562000569578190505b6200058162000578856200040d565b83018262000512565b50505b505050565b600082821c905092915050565b6000620005a96000198460080262000589565b1980831691505092915050565b6000620005c4838362000596565b9150826002028217905092915050565b620005df826200035a565b67ffffffffffffffff811115620005fb57620005fa62000365565b5b620006078254620003c3565b6200061482828562000539565b600060209050601f8311600181146200064c576000841562000637578287015190505b620006438582620005b6565b865550620006b3565b601f1984166200065c86620003f8565b60005b8281101562000686578489015182556001820191506020850194506020810190506200065f565b86831015620006a65784890151620006a2601f89168262000596565b8355505b6001600288020188555050505b505050505050565b7f4e487b7100000000000000000000000000000000000000000000000000000000600052601160045260246000fd5b6000620006f78262000480565b9150620007048362000480565b9250828202620007148162000480565b915082820484148315176200072e576200072d620006bb565b5b5092915050565b600073ffffffffffffffffffffffffffffffffffffffff82169050919050565b6000620007628262000735565b9050919050565b620007748162000755565b82525050565b620007858162000480565b82525050565b600060c082019050620007a2600083018962000769565b620007b1602083018862000769565b620007c060408301876200077a565b620007cf60608301866200077a565b620007de60808301856200077a565b620007ed60a08301846200077a565b979650505050505050565b60008160011c9050919050565b6000808291508390505b600185111562000857578086048111156200082f576200082e620006bb565b5b60018516156200083f5780820291505b80810290506200084f85620007f8565b94506200080f565b94509492505050565b60008262000872576001905062000945565b8162000882576000905062000945565b81600181146200089b5760028114620008a657620008dc565b600191505062000945565b60ff841115620008bb57620008ba620006bb565b5b8360020a915084821115620008d557620008d4620006bb565b5b5062000945565b5060208310610133831016604e8410600b8410161715620009165782820a90508381111562000910576200090f620006bb565b5b62000945565b62000925848484600162000805565b925090508184048111156200093f576200093e620006bb565b5b81810290505b9392505050565b600060ff82169050919050565b6000620009668262000480565b915062000973836200094c565b9250620009a27fffffffffffffffffffffffffffffffffffffffffffffffffffffffffffffffff848462000860565b905092915050565b600082825260208201905092915050565b7f45524332303a206d696e7420746f20746865207a65726f206164647265737300600082015250565b6000620009f3601f83620009aa565b915062000a0082620009bb565b602082019050919050565b6000602082019050818103600083015262000a2681620009e4565b9050919050565b600062000a3a8262000480565b915062000a478362000480565b925082820190508082111562000a625762000a61620006bb565b5b92915050565b600060208201905062000a7f60008301846200077a565b92915050565b611c978062000a956000396000f3fe6080604052600436106101bb5760003560e01c806370a08231116100ec578063cf27849f1161008a578063ddd37d9a11610064578063ddd37d9a14610662578063e6fd48bc1461068b578063ed01bf29146106b6578063f387bcac146106e1576101c2565b8063cf27849f146105bf578063dbba0f01146105e8578063dd62ed3e14610625576101c2565b806395d89b41116100c657806395d89b41146104ef578063a457c2d71461051a578063a9059cbb14610557578063bc7be4a314610594576101c2565b806370a082311461044a57806384e311a4146104875780638da5cb5b146104c4576101c2565b806323b872dd1161015957806341d049931161013357806341d04993146103a45780634852ae18146103cd57806349c26fcb1461040a5780635c3c29e714610433576101c2565b806323b872dd146102ff578063313ce5671461033c5780633950935114610367576101c2565b806318160ddd1161019557806318160ddd146102555780631e83409a14610280578063200d2ed2146102a9578063228cb733146102d4576101c2565b806306fdde03146101c4578063095ea7b3146101ef5780630b228b301461022c576101c2565b366101c257005b005b3480156101d057600080fd5b506101d961070c565b6040516101e69190611390565b60405180910390f35b3480156101fb57600080fd5b506102166004803603810190610211919061144b565b61079e565b60405161022391906114a6565b60405180910390f35b34801561023857600080fd5b50610253600480360381019061024e91906114c1565b6107c1565b005b34801561026157600080fd5b5061026a6107eb565b60405161027791906114fd565b60405180910390f35b34801561028c57600080fd5b506102a760048036038101906102a29190611518565b6107f5565b005b3480156102b557600080fd5b506102be61092f565b6040516102cb91906114a6565b60405180910390f35b3480156102e057600080fd5b506102e9610942565b6040516102f691906114fd565b60405180910390f35b34801561030b57600080fd5b5061032660048036038101906103219190611545565b610948565b60405161033391906114a6565b60405180910390f35b34801561034857600080fd5b50610351610977565b60405161035e91906115b4565b60405180910390f35b34801561037357600080fd5b5061038e6004803603810190610389919061144b565b610980565b60405161039b91906114a6565b60405180910390f35b3480156103b057600080fd5b506103cb60048036038101906103c691906114c1565b6109b7565b005b3480156103d957600080fd5b506103f460048036038101906103ef9190611518565b6109c1565b60405161040191906114fd565b60405180910390f35b34801561041657600080fd5b50610431600480360381019061042c91906114c1565b610a0a565b005b34801561043f57600080fd5b50610448610a26565b005b34801561045657600080fd5b50610471600480360381019061046c9190611518565b610a52565b60405161047e91906114fd565b60405180910390f35b34801561049357600080fd5b506104ae60048036038101906104a99190611518565b610a9a565b6040516104bb91906114fd565b60405180910390f35b3480156104d057600080fd5b506104d9610ab2565b6040516104e691906115f0565b60405180910390f35b3480156104fb57600080fd5b50610504610ad8565b6040516105119190611390565b60405180910390f35b34801561052657600080fd5b50610541600480360381019061053c919061144b565b610b6a565b60405161054e91906114a6565b60405180910390f35b34801561056357600080fd5b5061057e6004803603810190610579919061144b565b610be1565b60405161058b91906114a6565b60405180910390f35b3480156105a057600080fd5b506105a9610c04565b6040516105b691906114fd565b60405180910390f35b3480156105cb57600080fd5b506105e660048036038101906105e191906114c1565b610c0a565b005b3480156105f457600080fd5b5061060f600480360381019061060a919061160b565b610c26565b60405161061c91906114a6565b60405180910390f35b34801561063157600080fd5b5061064c6004803603810190610647919061165e565b610d25565b60405161065991906114fd565b60405180910390f35b34801561066e57600080fd5b50610689600480360381019061068491906114c1565b610dac565b005b34801561069757600080fd5b506106a0610dd6565b6040516106ad91906114fd565b60405180910390f35b3480156106c257600080fd5b506106cb610ddc565b6040516106d891906114fd565b60405180910390f35b3480156106ed57600080fd5b506106f6610de2565b60405161070391906114a6565b60405180910390f35b60606003805461071b906116cd565b80601f0160208091040260200160405190810160405280929190818152602001828054610747906116cd565b80156107945780601f1061076957610100808354040283529160200191610794565b820191906000526020600020905b81548152906001019060200180831161077757829003601f168201915b5050505050905090565b6000806107a9610e23565b90506107b6818585610e2b565b600191505092915050565b62015180816107d0919061172d565b600960008282546107e1919061176f565b9250508190555050565b6000600254905090565b6000600560008373ffffffffffffffffffffffffffffffffffffffff1673ffffffffffffffffffffffffffffffffffffffff1681526020019081526020016000205490506000600560008473ffffffffffffffffffffffffffffffffffffffff1673ffffffffffffffffffffffffffffffffffffffff1681526020019081526020016000208190555060008273ffffffffffffffffffffffffffffffffffffffff16826040516108a4906117d4565b60006040518083038185875af1925050503d80600081146108e1576040519150601f19603f3d011682016040523d82523d6000602084013e6108e6565b606091505b505090508061092a576040517f08c379a000000000000000000000000000000000000000000000000000000000815260040161092190611835565b60405180910390fd5b505050565b600a60009054906101000a900460ff1681565b60065481565b600080610953610e23565b9050610960858285610ff4565b61096b858585611080565b60019150509392505050565b60006012905090565b60008061098b610e23565b90506109ac81858561099d8589610d25565b6109a7919061176f565b610e2b565b600191505092915050565b8060068190555050565b6000600560008373ffffffffffffffffffffffffffffffffffffffff1673ffffffffffffffffffffffffffffffffffffffff168152602001908152602001600020549050919050565b8060076000828254610a1c919061176f565b9250508190555050565b600a60009054906101000a900460ff1615600a60006101000a81548160ff021916908315150217905550565b60008060008373ffffffffffffffffffffffffffffffffffffffff1673ffffffffffffffffffffffffffffffffffffffff168152602001908152602001600020549050919050565b60056020528060005260406000206000915090505481565b600a60019054906101000a900473ffffffffffffffffffffffffffffffffffffffff1681565b606060048054610ae7906116cd565b80601f0160208091040260200160405190810160405280929190818152602001828054610b13906116cd565b8015610b605780601f10610b3557610100808354040283529160200191610b60565b820191906000526020600020905b815481529060010190602001808311610b4357829003601f168201915b5050505050905090565b600080610b75610e23565b90506000610b838286610d25565b905083811015610bc8576040517f08c379a0000000000000000000000000000000000000000000000000000000008152600401610bbf906118c7565b60405180910390fd5b610bd58286868403610e2b565b60019250505092915050565b600080610bec610e23565b9050610bf9818585611080565b600191505092915050565b60095481565b8060076000828254610c1c91906118e7565b9250508190555050565b600081610c31610de2565b15610d1157600654600560008373ffffffffffffffffffffffffffffffffffffffff1673ffffffffffffffffffffffffffffffffffffffff1681526020019081526020016000206000828254610c87919061176f565b9250508190555060065460076000828254610ca291906118e7565b925050819055503073ffffffffffffffffffffffffffffffffffffffff168173ffffffffffffffffffffffffffffffffffffffff167f49b470a6964c117243aaac674d1bccc55c95245fdaecb4c127bdebbbaabe9f22600654604051610d0891906114fd565b60405180910390a35b610d1b8585610be1565b9150509392505050565b6000600160008473ffffffffffffffffffffffffffffffffffffffff1673ffffffffffffffffffffffffffffffffffffffff16815260200190815260200160002060008373ffffffffffffffffffffffffffffffffffffffff1673ffffffffffffffffffffffffffffffffffffffff16815260200190815260200160002054905092915050565b6201518081610dbb919061172d565b60096000828254610dcc91906118e7565b9250508190555050565b60085481565b60075481565b6000600954600854610df4919061176f565b42108015610e06575060065460075410155b8015610e1e5750600a60009054906101000a900460ff165b905090565b600033905090565b600073ffffffffffffffffffffffffffffffffffffffff168373ffffffffffffffffffffffffffffffffffffffff1603610e9a576040517f08c379a0000000000000000000000000000000000000000000000000000000008152600401610e919061198d565b60405180910390fd5b600073ffffffffffffffffffffffffffffffffffffffff168273ffffffffffffffffffffffffffffffffffffffff1603610f09576040517f08c379a0000000000000000000000000000000000000000000000000000000008152600401610f0090611a1f565b60405180910390fd5b80600160008573ffffffffffffffffffffffffffffffffffffffff1673ffffffffffffffffffffffffffffffffffffffff16815260200190815260200160002060008473ffffffffffffffffffffffffffffffffffffffff1673ffffffffffffffffffffffffffffffffffffffff168152602001908152602001600020819055508173ffffffffffffffffffffffffffffffffffffffff168373ffffffffffffffffffffffffffffffffffffffff167f8c5be1e5ebec7d5bd14f71427d1e84f3dd0314c0f7b2291e5b200ac8c7c3b92583604051610fe791906114fd565b60405180910390a3505050565b60006110008484610d25565b90507fffffffffffffffffffffffffffffffffffffffffffffffffffffffffffffffff811461107a578181101561106c576040517f08c379a000000000000000000000000000000000000000000000000000000000815260040161106390611a8b565b60405180910390fd5b6110798484848403610e2b565b5b50505050565b600073ffffffffffffffffffffffffffffffffffffffff168373ffffffffffffffffffffffffffffffffffffffff16036110ef576040517f08c379a00000000000000000000000000000000000000000000000000000000081526004016110e690611b1d565b60405180910390fd5b600073ffffffffffffffffffffffffffffffffffffffff168273ffffffffffffffffffffffffffffffffffffffff160361115e576040517f08c379a000000000000000000000000000000000000000000000000000000000815260040161115590611baf565b60405180910390fd5b6111698383836112f6565b60008060008573ffffffffffffffffffffffffffffffffffffffff1673ffffffffffffffffffffffffffffffffffffffff168152602001908152602001600020549050818110156111ef576040517f08c379a00000000000000000000000000000000000000000000000000000000081526004016111e690611c41565b60405180910390fd5b8181036000808673ffffffffffffffffffffffffffffffffffffffff1673ffffffffffffffffffffffffffffffffffffffff16815260200190815260200160002081905550816000808573ffffffffffffffffffffffffffffffffffffffff1673ffffffffffffffffffffffffffffffffffffffff168152602001908152602001600020600082825401925050819055508273ffffffffffffffffffffffffffffffffffffffff168473ffffffffffffffffffffffffffffffffffffffff167fddf252ad1be2c89b69c2b068fc378daa952ba7f163c4a11628f55a4df523b3ef846040516112dd91906114fd565b60405180910390a36112f08484846112fb565b50505050565b505050565b505050565b600081519050919050565b600082825260208201905092915050565b60005b8381101561133a57808201518184015260208101905061131f565b60008484015250505050565b6000601f19601f8301169050919050565b600061136282611300565b61136c818561130b565b935061137c81856020860161131c565b61138581611346565b840191505092915050565b600060208201905081810360008301526113aa8184611357565b905092915050565b600080fd5b600073ffffffffffffffffffffffffffffffffffffffff82169050919050565b60006113e2826113b7565b9050919050565b6113f2816113d7565b81146113fd57600080fd5b50565b60008135905061140f816113e9565b92915050565b6000819050919050565b61142881611415565b811461143357600080fd5b50565b6000813590506114458161141f565b92915050565b60008060408385031215611462576114616113b2565b5b600061147085828601611400565b925050602061148185828601611436565b9150509250929050565b60008115159050919050565b6114a08161148b565b82525050565b60006020820190506114bb6000830184611497565b92915050565b6000602082840312156114d7576114d66113b2565b5b60006114e584828501611436565b91505092915050565b6114f781611415565b82525050565b600060208201905061151260008301846114ee565b92915050565b60006020828403121561152e5761152d6113b2565b5b600061153c84828501611400565b91505092915050565b60008060006060848603121561155e5761155d6113b2565b5b600061156c86828701611400565b935050602061157d86828701611400565b925050604061158e86828701611436565b9150509250925092565b600060ff82169050919050565b6115ae81611598565b82525050565b60006020820190506115c960008301846115a5565b92915050565b60006115da826113b7565b9050919050565b6115ea816115cf565b82525050565b600060208201905061160560008301846115e1565b92915050565b600080600060608486031215611624576116236113b2565b5b600061163286828701611400565b935050602061164386828701611436565b925050604061165486828701611400565b9150509250925092565b60008060408385031215611675576116746113b2565b5b600061168385828601611400565b925050602061169485828601611400565b9150509250929050565b7f4e487b7100000000000000000000000000000000000000000000000000000000600052602260045260246000fd5b600060028204905060018216806116e557607f821691505b6020821081036116f8576116f761169e565b5b50919050565b7f4e487b7100000000000000000000000000000000000000000000000000000000600052601160045260246000fd5b600061173882611415565b915061174383611415565b925082820261175181611415565b91508282048414831517611768576117676116fe565b5b5092915050565b600061177a82611415565b915061178583611415565b925082820190508082111561179d5761179c6116fe565b5b92915050565b600081905092915050565b50565b60006117be6000836117a3565b91506117c9826117ae565b600082019050919050565b60006117df826117b1565b9150819050919050565b7f4661696c656420746f2073656e64204574686572000000000000000000000000600082015250565b600061181f60148361130b565b915061182a826117e9565b602082019050919050565b6000602082019050818103600083015261184e81611812565b9050919050565b7f45524332303a2064656372656173656420616c6c6f77616e63652062656c6f7760008201527f207a65726f000000000000000000000000000000000000000000000000000000602082015250565b60006118b160258361130b565b91506118bc82611855565b604082019050919050565b600060208201905081810360008301526118e0816118a4565b9050919050565b60006118f282611415565b91506118fd83611415565b9250828203905081811115611915576119146116fe565b5b92915050565b7f45524332303a20617070726f76652066726f6d20746865207a65726f2061646460008201527f7265737300000000000000000000000000000000000000000000000000000000602082015250565b600061197760248361130b565b91506119828261191b565b604082019050919050565b600060208201905081810360008301526119a68161196a565b9050919050565b7f45524332303a20617070726f766520746f20746865207a65726f20616464726560008201527f7373000000000000000000000000000000000000000000000000000000000000602082015250565b6000611a0960228361130b565b9150611a14826119ad565b604082019050919050565b60006020820190508181036000830152611a38816119fc565b9050919050565b7f45524332303a20696e73756666696369656e7420616c6c6f77616e6365000000600082015250565b6000611a75601d8361130b565b9150611a8082611a3f565b602082019050919050565b60006020820190508181036000830152611aa481611a68565b9050919050565b7f45524332303a207472616e736665722066726f6d20746865207a65726f20616460008201527f6472657373000000000000000000000000000000000000000000000000000000602082015250565b6000611b0760258361130b565b9150611b1282611aab565b604082019050919050565b60006020820190508181036000830152611b3681611afa565b9050919050565b7f45524332303a207472616e7366657220746f20746865207a65726f206164647260008201527f6573730000000000000000000000000000000000000000000000000000000000602082015250565b6000611b9960238361130b565b9150611ba482611b3d565b604082019050919050565b60006020820190508181036000830152611bc881611b8c565b9050919050565b7f45524332303a207472616e7366657220616d6f756e742065786365656473206260008201527f616c616e63650000000000000000000000000000000000000000000000000000602082015250565b6000611c2b60268361130b565b9150611c3682611bcf565b604082019050919050565b60006020820190508181036000830152611c5a81611c1e565b905091905056fea2646970667358221220664d77543ed793a7aefa86ba5ca8a0d0a9051ee9d8edc509503297cd68fe5bf164736f6c63430008130033",
  "linkReferences": {},
  "deployedLinkReferences": {}
}