{
  "_format": "hh-sol-artifact-1",
  "contractName": "AdvertisableDao",
  "sourceName": "contracts/AdvertisableDao.sol",
  "abi": [
    {
      "inputs": [],
      "stateMutability": "payable",
      "type": "constructor"
    },
    {
      "anonymous": false,
      "inputs": [
        {
          "indexed": false,
          "internalType": "address",
          "name": "owner",
          "type": "address"
        },
        {
          "indexed": false,
          "internalType": "address",
          "name": "contractAddress",
          "type": "address"
        },
        {
          "indexed": false,
          "internalType": "uint256",
          "name": "reward",
          "type": "uint256"
        },
        {
          "indexed": false,
          "internalType": "uint256",
          "name": "budget",
          "type": "uint256"
        },
        {
          "indexed": false,
          "internalType": "uint256",
          "name": "startTimestamp",
          "type": "uint256"
        },
        {
          "indexed": false,
          "internalType": "uint256",
          "name": "campaignPeriod",
          "type": "uint256"
        }
      ],
      "name": "CampaignEvent",
      "type": "event"
    },
    {
      "anonymous": false,
      "inputs": [
        {
          "indexed": true,
          "internalType": "address",
          "name": "referrer",
          "type": "address"
        },
        {
          "indexed": true,
          "internalType": "address",
          "name": "contractAddress",
          "type": "address"
        },
        {
          "indexed": false,
          "internalType": "uint256",
          "name": "reward",
          "type": "uint256"
        }
      ],
      "name": "ReferralEvent",
      "type": "event"
    },
    {
      "stateMutability": "payable",
      "type": "fallback"
    },
    {
      "inputs": [],
      "name": "budget",
      "outputs": [
        {
          "internalType": "uint256",
          "name": "",
          "type": "uint256"
        }
      ],
      "stateMutability": "view",
      "type": "function"
    },
    {
      "inputs": [],
      "name": "campaignPeriod",
      "outputs": [
        {
          "internalType": "uint256",
          "name": "",
          "type": "uint256"
        }
      ],
      "stateMutability": "view",
      "type": "function"
    },
    {
      "inputs": [
        {
          "internalType": "uint256",
          "name": "newFee",
          "type": "uint256"
        }
      ],
      "name": "changeDefaultFee",
      "outputs": [],
      "stateMutability": "nonpayable",
      "type": "function"
    },
    {
      "inputs": [
        {
          "internalType": "address",
          "name": "referrer",
          "type": "address"
        }
      ],
      "name": "claim",
      "outputs": [],
      "stateMutability": "nonpayable",
      "type": "function"
    },
    {
      "inputs": [
        {
          "internalType": "uint256",
          "name": "amount",
          "type": "uint256"
        }
      ],
      "name": "decreaseBudget",
      "outputs": [],
      "stateMutability": "nonpayable",
      "type": "function"
    },
    {
      "inputs": [
        {
          "internalType": "uint256",
          "name": "numDays",
          "type": "uint256"
        }
      ],
      "name": "decreaseCampaignPeriod",
      "outputs": [],
      "stateMutability": "nonpayable",
      "type": "function"
    },
    {
      "inputs": [
        {
          "internalType": "address",
          "name": "referrer",
          "type": "address"
        }
      ],
      "name": "getReferrerReward",
      "outputs": [
        {
          "internalType": "uint256",
          "name": "",
          "type": "uint256"
        }
      ],
      "stateMutability": "view",
      "type": "function"
    },
    {
      "inputs": [
        {
          "internalType": "uint256",
          "name": "amount",
          "type": "uint256"
        }
      ],
      "name": "increaseBudget",
      "outputs": [],
      "stateMutability": "nonpayable",
      "type": "function"
    },
    {
      "inputs": [
        {
          "internalType": "uint256",
          "name": "numDays",
          "type": "uint256"
        }
      ],
      "name": "increaseCampaignPeriod",
      "outputs": [],
      "stateMutability": "nonpayable",
      "type": "function"
    },
    {
      "inputs": [],
      "name": "isCampaignActive",
      "outputs": [
        {
          "internalType": "bool",
          "name": "",
          "type": "bool"
        }
      ],
      "stateMutability": "view",
      "type": "function"
    },
    {
      "inputs": [
        {
          "internalType": "address",
          "name": "referrer",
          "type": "address"
        }
      ],
      "name": "joinDao",
      "outputs": [],
      "stateMutability": "nonpayable",
      "type": "function"
    },
    {
      "inputs": [],
      "name": "owner",
      "outputs": [
        {
          "internalType": "address payable",
          "name": "",
          "type": "address"
        }
      ],
      "stateMutability": "view",
      "type": "function"
    },
    {
      "inputs": [
        {
          "internalType": "address",
          "name": "",
          "type": "address"
        }
      ],
      "name": "referrerRewards",
      "outputs": [
        {
          "internalType": "uint256",
          "name": "",
          "type": "uint256"
        }
      ],
      "stateMutability": "view",
      "type": "function"
    },
    {
      "inputs": [],
      "name": "reward",
      "outputs": [
        {
          "internalType": "uint256",
          "name": "",
          "type": "uint256"
        }
      ],
      "stateMutability": "view",
      "type": "function"
    },
    {
      "inputs": [],
      "name": "startTimestamp",
      "outputs": [
        {
          "internalType": "uint256",
          "name": "",
          "type": "uint256"
        }
      ],
      "stateMutability": "view",
      "type": "function"
    },
    {
      "inputs": [],
      "name": "status",
      "outputs": [
        {
          "internalType": "bool",
          "name": "",
          "type": "bool"
        }
      ],
      "stateMutability": "view",
      "type": "function"
    },
    {
      "inputs": [],
      "name": "toggleCampaign",
      "outputs": [],
      "stateMutability": "nonpayable",
      "type": "function"
    },
    {
      "stateMutability": "payable",
      "type": "receive"
    }
  ],
  "bytecode": "0x60806040526001600560006101000a81548160ff02191690831515021790555060056064600782600181905550816002819055504260038190555062015180816200004b91906200011f565b6004819055507fcbded4ed87b97ca7d901b0f1d4a6913b2585d0cf38778dba1b325b54fdaf881d33306001546002546003546004546040516200009496959493929190620001c0565b60405180910390a150505033600560016101000a81548173ffffffffffffffffffffffffffffffffffffffff021916908373ffffffffffffffffffffffffffffffffffffffff1602179055506200022d565b6000819050919050565b7f4e487b7100000000000000000000000000000000000000000000000000000000600052601160045260246000fd5b60006200012c82620000e6565b91506200013983620000e6565b92508282026200014981620000e6565b91508282048414831517620001635762000162620000f0565b5b5092915050565b600073ffffffffffffffffffffffffffffffffffffffff82169050919050565b600062000197826200016a565b9050919050565b620001a9816200018a565b82525050565b620001ba81620000e6565b82525050565b600060c082019050620001d760008301896200019e565b620001e660208301886200019e565b620001f56040830187620001af565b620002046060830186620001af565b620002136080830185620001af565b6200022260a0830184620001af565b979650505050505050565b610b21806200023d6000396000f3fe6080604052600436106101025760003560e01c80635c3c29e711610095578063cf27849f11610064578063cf27849f14610315578063ddd37d9a1461033e578063e6fd48bc14610367578063ed01bf2914610392578063f387bcac146103bd57610109565b80635c3c29e71461026b57806384e311a4146102825780638da5cb5b146102bf578063bc7be4a3146102ea57610109565b8063228cb733116100d1578063228cb733146101b157806341d04993146101dc5780634852ae181461020557806349c26fcb1461024257610109565b80630b228b301461010b5780631588ace4146101345780631e83409a1461015d578063200d2ed21461018657610109565b3661010957005b005b34801561011757600080fd5b50610132600480360381019061012d91906107fb565b6103e8565b005b34801561014057600080fd5b5061015b60048036038101906101569190610886565b610412565b005b34801561016957600080fd5b50610184600480360381019061017f9190610886565b6104fe565b005b34801561019257600080fd5b5061019b610636565b6040516101a891906108ce565b60405180910390f35b3480156101bd57600080fd5b506101c6610649565b6040516101d391906108f8565b60405180910390f35b3480156101e857600080fd5b5061020360048036038101906101fe91906107fb565b61064f565b005b34801561021157600080fd5b5061022c60048036038101906102279190610886565b610659565b60405161023991906108f8565b60405180910390f35b34801561024e57600080fd5b50610269600480360381019061026491906107fb565b6106a1565b005b34801561027757600080fd5b506102806106bd565b005b34801561028e57600080fd5b506102a960048036038101906102a49190610886565b6106e9565b6040516102b691906108f8565b60405180910390f35b3480156102cb57600080fd5b506102d4610701565b6040516102e19190610934565b60405180910390f35b3480156102f657600080fd5b506102ff610727565b60405161030c91906108f8565b60405180910390f35b34801561032157600080fd5b5061033c600480360381019061033791906107fb565b61072d565b005b34801561034a57600080fd5b50610365600480360381019061036091906107fb565b610749565b005b34801561037357600080fd5b5061037c610773565b60405161038991906108f8565b60405180910390f35b34801561039e57600080fd5b506103a7610779565b6040516103b491906108f8565b60405180910390f35b3480156103c957600080fd5b506103d261077f565b6040516103df91906108ce565b60405180910390f35b62015180816103f7919061097e565b6004600082825461040891906109c0565b9250508190555050565b8061041b61077f565b156104fa576001546000808373ffffffffffffffffffffffffffffffffffffffff1673ffffffffffffffffffffffffffffffffffffffff168152602001908152602001600020600082825461047091906109c0565b925050819055506001546002600082825461048b91906109f4565b925050819055503073ffffffffffffffffffffffffffffffffffffffff168173ffffffffffffffffffffffffffffffffffffffff167f49b470a6964c117243aaac674d1bccc55c95245fdaecb4c127bdebbbaabe9f226001546040516104f191906108f8565b60405180910390a35b5050565b60008060008373ffffffffffffffffffffffffffffffffffffffff1673ffffffffffffffffffffffffffffffffffffffff16815260200190815260200160002054905060008060008473ffffffffffffffffffffffffffffffffffffffff1673ffffffffffffffffffffffffffffffffffffffff1681526020019081526020016000208190555060008273ffffffffffffffffffffffffffffffffffffffff16826040516105ab90610a59565b60006040518083038185875af1925050503d80600081146105e8576040519150601f19603f3d011682016040523d82523d6000602084013e6105ed565b606091505b5050905080610631576040517f08c379a000000000000000000000000000000000000000000000000000000000815260040161062890610acb565b60405180910390fd5b505050565b600560009054906101000a900460ff1681565b60015481565b8060018190555050565b60008060008373ffffffffffffffffffffffffffffffffffffffff1673ffffffffffffffffffffffffffffffffffffffff168152602001908152602001600020549050919050565b80600260008282546106b391906109c0565b9250508190555050565b600560009054906101000a900460ff1615600560006101000a81548160ff021916908315150217905550565b60006020528060005260406000206000915090505481565b600560019054906101000a900473ffffffffffffffffffffffffffffffffffffffff1681565b60045481565b806002600082825461073f91906109f4565b9250508190555050565b6201518081610758919061097e565b6004600082825461076991906109f4565b9250508190555050565b60035481565b60025481565b600060045460035461079191906109c0565b421080156107a3575060015460025410155b80156107bb5750600560009054906101000a900460ff165b905090565b600080fd5b6000819050919050565b6107d8816107c5565b81146107e357600080fd5b50565b6000813590506107f5816107cf565b92915050565b600060208284031215610811576108106107c0565b5b600061081f848285016107e6565b91505092915050565b600073ffffffffffffffffffffffffffffffffffffffff82169050919050565b600061085382610828565b9050919050565b61086381610848565b811461086e57600080fd5b50565b6000813590506108808161085a565b92915050565b60006020828403121561089c5761089b6107c0565b5b60006108aa84828501610871565b91505092915050565b60008115159050919050565b6108c8816108b3565b82525050565b60006020820190506108e360008301846108bf565b92915050565b6108f2816107c5565b82525050565b600060208201905061090d60008301846108e9565b92915050565b600061091e82610828565b9050919050565b61092e81610913565b82525050565b60006020820190506109496000830184610925565b92915050565b7f4e487b7100000000000000000000000000000000000000000000000000000000600052601160045260246000fd5b6000610989826107c5565b9150610994836107c5565b92508282026109a2816107c5565b915082820484148315176109b9576109b861094f565b5b5092915050565b60006109cb826107c5565b91506109d6836107c5565b92508282019050808211156109ee576109ed61094f565b5b92915050565b60006109ff826107c5565b9150610a0a836107c5565b9250828203905081811115610a2257610a2161094f565b5b92915050565b600081905092915050565b50565b6000610a43600083610a28565b9150610a4e82610a33565b600082019050919050565b6000610a6482610a36565b9150819050919050565b600082825260208201905092915050565b7f4661696c656420746f2073656e64204574686572000000000000000000000000600082015250565b6000610ab5601483610a6e565b9150610ac082610a7f565b602082019050919050565b60006020820190508181036000830152610ae481610aa8565b905091905056fea2646970667358221220db812b6efe8393bbaee72744238748e8023f6dbf920682d0d613e881d35c94f764736f6c63430008130033",
  "linkReferences": {},
  "deployedLinkReferences": {}
}